:06030400010F00011000D2
:1002EA00758901758A9B758CFF758B9B758DFFD2FD
:0A02FA00A9D2ABD2AFD28CD28E2273
:03000B00020128C7
:10012800C0E0C0F0C083C082C0D075D000C000C09D
:0D01380001C002C003C004C005C006C0071E
:10014500758AF5758CFF050FC3E50F940A748094C5
:0901550080400612028F750F00B4
:10015E00D007D006D005D004D003D002D001D000F5
:0B016E00D0D0D082D083D0F0D0E0329F
:03001B0002017966
:10017900C0E0C0F0C083C082C0D075D000C000C04C
:0D01890001C002C003C004C005C006C007CD
:10019600758BF5758DFF0510C3E51094C8748094B2
:0901A6008040061200AA75100049
:1001AF00D007D006D005D004D003D002D001D000A4
:0B01BF00D0D0D082D083D0F0D0E0324E
:0D000E007F041202091202EA12024280FB76
:10020900EF603224FB601314601914601F2403701B
:1002190027E5A0541F4480F5A022E5A0541F44A05F
:10022900F5A022E5A0541F44C0F5A022E5A0541F63
:0902390044E0F5A02253A01F22AD
:1002B000C0F9A4B0999282F880908883C6A1868EF6
:0E02C0008CC191BF7FFF010204081020408016
:1002CE008F138D147F061202098513807F017E0025
:0C02DE0012031B7F071202098514802206
:1000AA00050CE50C64087002F50CE50CB408005068
:1000BA005C9000C2F82828730200DA0200E102000C
:1000CA00E90200F10200F90201010201090201112B
:1000DA00E4F50DF50E8036750D01750E01802E754D
:1000EA000D02750E028026750D03750E03801E75AE
:1000FA000D04750E048016750D05750E05800E75B6
:10010A000D06750E068006750D07750E07E50D902E
:0E011A0002C693FFE50E9002B093FD0202CEE6
:06030A00011201011100C7
:0B031B00EF1FAC0670011E4C70F622B4
:10026E00AF127E00EF6401700475110A22EF640272
:10027E004E700475113222EF64034E700375115ADD
:01028E00224D
:10024200C2B0D2B3D2B2D2B1D2B4D2B5D2C2D2C477
:1002520020B40F7F647E0012031B20B4020512300B
:0C026200B4FDE512640470037512012263
:0A031000020900FF010800010B00C4
:1001CA00ED701AEF14FF7E007401A807088005C3BA
:1001DA0033CE33CED8F9420AEE4209801EEF14FF1D
:1001EA007E007401A807088005C333CE33CED8F940
:0F01FA00F4FFEEF4FEEF520AEE5209850A80225E
:10028F0012026E0508E508B511077D017F01020115
:10029F00CAE50864647009FD7F011201CAE4F5081C
:0102AF00222C
:0300000002001EDD
:0C001E00787FE4F6D8FD758114020065BF
:10002A0002000EE493A3F8E493A34003F68001F2DE
:10003A0008DFF48029E493A3F85407240CC8C333D7
:10004A00C4540F4420C8834004F456800146F6DFA6
:10005A00E4800B0102040810204080900304E47E2F
:10006A00019360BCA3FF543F30E509541FFEE4939B
:10007A00A360010ECF54C025E060A840B8E493A362
:10008A00FAE493A3F8E493A3C8C582C8CAC583CA8D
:10009A00F0A3C8C582C8CAC583CADFE9DEE780BE45
:01031A0000E2
:00000001FF
