:06029200010F0001100045
:1002A900758901758A9B758CFFD2A9D2AFD28C2230
:03000B00020118D7
:10011800C0E0C0F0C083C082C0D075D000C000C0AD
:0D01280001C002C003C004C005C006C0072E
:10013500758AF5758CFF050F0510E50F640A7006C5
:10014500120237750F00E5106464700612009A7587
:02015500100098
:10015700D007D006D005D004D003D002D001D000FC
:0B016700D0D0D082D083D0F0D0E032A6
:0D02B9007F041201B11202A91201EA80FBBC
:1001B100EF603224FB601314601914601F24037074
:1001C10027E5A0541F4480F5A022E5A0541F44A0B8
:1001D100F5A022E5A0541F44C0F5A022E5A0541FBC
:0901E10044E0F5A02253A01F2206
:10025800C0F9A4B0999282F880908883C6A1868E4E
:0E0268008CC191BF7FFF01020408102040806E
:100276008F138D147F061201B18513807F017E00D6
:0C0286001202C67F071201B1851480220D
:10009A00050CE50C64087002F50CE50CB408005078
:1000AA005C9000B2F82828730200CA0200D102004C
:1000BA00D90200E10200E90200F10200F90201019D
:1000CA00E4F50DF50E8036750D01750E01802E755D
:1000DA000D02750E028026750D03750E03801E75BE
:1000EA000D04750E048016750D05750E05800E75C6
:1000FA000D06750E068006750D07750E07E50D903F
:0E010A00026E93FFE50E90025893FD020276FE
:060298000112010111003A
:0B02C600EF1FAC0670011E4C70F6220A
:10021600AF127E00EF6401700475110A22EF6402CA
:100226004E700475113222EF64034E700375115A35
:0102360022A5
:1001EA00C2B0D2B3D2B2D2B1D2B4D2B5D2C2D2C4D0
:1001FA0020B40F7F647E001202C620B402051230BA
:0C020A00B4FDE5126404700375120122BB
:0A029E00020900FF010800010B0037
:10017200ED701AEF14FF7E007401A807088005C312
:1001820033CE33CED8F9420AEE4209801EEF14FF75
:100192007E007401A807088005C333CE33CED8F998
:0F01A200F4FFEEF4FEEF520AEE5209850A8022B6
:100237001202160508E508B511077D017F010201C5
:1002470072E50864647009FD7F01120172E4F50824
:010257002284
:0300000002000EED
:0C000E00787FE4F6D8FD758114020055DF
:10001A000202B9E493A3F8E493A34003F68001F241
:10002A0008DFF48029E493A3F85407240CC8C333E7
:10003A00C4540F4420C8834004F456800146F6DFB6
:10004A00E4800B0102040810204080900292E47EB2
:10005A00019360BCA3FF543F30E509541FFEE493AB
:10006A00A360010ECF54C025E060A840B8E493A372
:10007A00FAE493A3F8E493A3C8C582C8CAC583CA9D
:10008A00F0A3C8C582C8CAC583CADFE9DEE780BE55
:0102A8000055
:00000001FF
